{"abi":[{"type":"function","name":"sendEthViaProxy","inputs":[{"name":"_stealthAddress","type":"address","internalType":"address payable"},{"name":"_R","type":"bytes","internalType":"bytes"},{"name":"_viewTag","type":"bytes","internalType":"bytes"}],"outputs":[],"stateMutability":"payable"},{"type":"event","name":"Announcement","inputs":[{"name":"schemeId","type":"uint256","indexed":true,"internalType":"uint256"},{"name":"stealthAddress","type":"address","indexed":true,"internalType":"address"},{"name":"caller","type":"address","indexed":true,"internalType":"address"},{"name":"ephemeralPubKey","type":"bytes","indexed":false,"internalType":"bytes"},{"name":"metadata","type":"bytes","indexed":false,"internalType":"bytes"}],"anonymous":false}],"bytecode":{"object":"0x6080604052348015600e575f5ffd5b506103fa8061001c5f395ff3fe60806040526004361061001d575f3560e01c80637c908c5a14610021575b5f5ffd5b61003b600480360381019061003691906102a7565b61003d565b005b610048838383610091565b8273ffffffffffffffffffffffffffffffffffffffff166108fc3490811502906040515f60405180830381858888f1935050505015801561008b573d5f5f3e3d5ffd5b50505050565b3373ffffffffffffffffffffffffffffffffffffffff168373ffffffffffffffffffffffffffffffffffffffff16610d007f5f0eab8057630ba7676c49b4f21a0231414e79474595be8e4c432fbf6bf0f4e785856040516100f392919061038f565b60405180910390a4505050565b5f604051905090565b5f5ffd5b5f5ffd5b5f73ffffffffffffffffffffffffffffffffffffffff82169050919050565b5f61013a82610111565b9050919050565b61014a81610130565b8114610154575f5ffd5b50565b5f8135905061016581610141565b92915050565b5f5ffd5b5f5ffd5b5f601f19601f8301169050919050565b7f4e487b71000000000000000000000000000000000000000000000000000000005f52604160045260245ffd5b6101b982610173565b810181811067ffffffffffffffff821117156101d8576101d7610183565b5b80604052505050565b5f6101ea610100565b90506101f682826101b0565b919050565b5f67ffffffffffffffff82111561021557610214610183565b5b61021e82610173565b9050602081019050919050565b828183375f83830152505050565b5f61024b610246846101fb565b6101e1565b9050828152602081018484840111156102675761026661016f565b5b61027284828561022b565b509392505050565b5f82601f83011261028e5761028d61016b565b5b813561029e848260208601610239565b91505092915050565b5f5f5f606084860312156102be576102bd610109565b5b5f6102cb86828701610157565b935050602084013567ffffffffffffffff8111156102ec576102eb61010d565b5b6102f88682870161027a565b925050604084013567ffffffffffffffff8111156103195761031861010d565b5b6103258682870161027a565b9150509250925092565b5f81519050919050565b5f82825260208201905092915050565b8281835e5f83830152505050565b5f6103618261032f565b61036b8185610339565b935061037b818560208601610349565b61038481610173565b840191505092915050565b5f6040820190508181035f8301526103a78185610357565b905081810360208301526103bb8184610357565b9050939250505056fea2646970667358221220751d46ed2d5f24ee58aec2a44bb495f8bd1d542652a49c1fed7c30ae085f1fcf64736f6c634300081c0033","linkReferences":{}},"methodIdentifiers":{"sendEthViaProxy(address,bytes,bytes)":"7c908c5a"},"id":0}